:100000000C94B5000C94D2000C94D2000C94D20045
:100010000C94D2000C94D2000C94D2000C94D20018
:100020000C94D2000C94D2000C94D2000C94D20008
:100030000C94D2000C94D2000C94D2000C94D200F8
:100040000C94D2000C94D2000C94D0010C94D200E9
:100050000C94D2000C94D2000C94D2000C948B011E
:100060000C94D2000C94D2006E616E00696E660032
:1000700000407A10F35A00A0724E18090010A5D45F
:10008000E80000E87648170000E40B54020000CABC
:100090009A3B000000E1F505000080969800000002
:1000A00040420F000000A086010000001027000061
:1000B0000000E803000000006400000000000A00E7
:1000C000000000000100000000002C76D888DC67EA
:1000D0004F0823DFC1DFAE59E1B1B796E5E3E45342
:1000E000C63AE651997696E8E6C28426EB898C9B5F
:1000F00062ED407C6FFCEFBC9C9F40F2BAA56FA5FF
:10010000F490055A2AF75C936B6CF9676DC11BFC80
:10011000E0E40D47FEF520E6B500D0ED902E03009B
:10012000943577050080841E080000204E0A0000E8
:1001300000C80C333333330F986E12831141EF8DA7
:100140002114893BE65516CFFEE6DB18D1844B38E7
:100150001BF77C1D901DA4BBE424203284725E2218
:100160008100C9F124ECA1E53D2711241FBECFEF8A
:10017000D8E0DEBFCDBF11E0A0E0B1E0EEEBF6E1EC
:1001800002C005900D92A834B107D9F721E0A8E488
:10019000B1E001C01D92AC34B207E1F70E94F60154
:1001A0000C945D0B0C9400009C0180E0F901E80FB9
:1001B000F11D9081911101C008954091C00045FF4B
:1001C000FCCF9093C6008F5FF1CF80914B018330BD
:1001D00009F45AC020F5813049F1823009F447C052
:1001E0001092B00081E8809380008BB18B7E8BB938
:1001F0005B9A80917C008A7F80937C0080917C0058
:10020000826080937C0080E480937B0080917A0000
:100210008F7780937A0080B7836080BF08958430A1
:1002200009F444C0853009F456C008951092B00016
:1002300081E8809380008BB1877E8BB95A9A809138
:100240007C00897F80937C0080917C00816080931A
:100250007C0080E480937B0080917A008F7780938C
:100260007A0080B78E7F80BF80B78260D6CF109231
:10027000B00081E2809380008BB1877E8BB95A9A5F
:1002800080917C00887FBDCF1092B00081E2809386
:1002900080008BB1837F8BB95C9A80917C008A7FD0
:1002A00080937C0080917C008260D1CF809180001F
:1002B0008F758093800083E88093B0008BB1837F3B
:1002C0008BB95C9A80917C00897F80937C008091BF
:1002D0007C00816096CF809180008F758093800034
:1002E00083E88093B0008BB18B7E8BB95B9A809151
:1002F0007C00887FACCF833208F483E2282F30E083
:10030000309389002093880030938B0020938A00DB
:100310008093B30008951F920F920FB60F9211248D
:100320002F933F934F935F936F937F938F939F93FD
:10033000AF93BF93EF93FF9380E090E020914B0148
:1003400020FF2AC000B605FEF9CF01968A3091053C
:10035000A9F70E94E50080914B018F5F80934B01CC
:1003600080914B0166E00E946C0790934B0185B130
:1003700090E1892785B9FF91EF91BF91AF919F914E
:100380008F917F916F915F914F913F912F910F903E
:100390000FBE0F901F90189500B605FCCFCFD5CF9C
:1003A0001F921FB61F9211248F939F938091490132
:1003B00090914A018091C6008091490190914A0133
:1003C000019690934A01809349018091490190914F
:1003D0004A018032910524F010924A01109249019D
:1003E0009F918F911F901FBE1F901895CDB7DEB7BC
:1003F00064970FB6F894DEBF0FBECDBF84B18063A3
:1004000084B984B18E6084B985B1817F85B98AB1A0
:100410008C618AB98BB1837E8BB910928100109266
:1004200080001092B0001092B10081E08093B10082
:1004300089E08093810081E88093800080917A0038
:100440008F7780937A0080E880BF80B7887080BF04
:100450008BE490E00E947B0188E98093C10086E0F4
:100460008093C20083E38093C4001092C500789407
:1004700080E091E00E94D40090EDA92E97E0B92E83
:1004800028EC822E912CC5010B2C000CAA0BBB0B67
:10049000898B9A8BAB8BBC8BBC01CD010E943B0A34
:1004A0007B018C012BEA3AEA4AE250E4698BFA8A32
:1004B0008B8B1C8B69897A898B899C890E94F00AB5
:1004C0003B016C0120E030E040E85FE3698B7A8A11
:1004D0008B8BDC8A69897A898B899C890E94930934
:1004E00087FD18C19701A801E98AFA8A0B8B1C8B3A
:1004F00069897A898B899C890E9427091B012C01B3
:1005000020E03FEF4FE757E4698B3A8A8B8B5C8A98
:1005100069897A898B899C890E94EB0A18160CF0EC
:10052000CBC020E030E04AE754E4E98AFA8A0B8B3A
:100530001C8B69897A898B899C890E9498093B0167
:100540006C0120E030E04AEF54E4698B7A8A8B8BAF
:10055000DC8A69897A898B899C890E94F00A7B01EF
:100560008C0120E030E040E85FE3698BFA8A8B8BF6
:100570001C8B69897A898B899C890E94930987FDE4
:1005800098C020E03FEF4FE757E469897A898B896B
:100590009C890E94EB0A18160CF07DC020E030E028
:1005A00040E251E4698A7A8ACB8ADC8A69897A894D
:1005B0008B899C890E94F00A698B7A8B8B8B9C8B30
:1005C00069897A898B899C890E940A0ACB010097E4
:1005D00009F05CC00E94E50080914B018F5F809321
:1005E0004B0180914B0166E00E946C0790934B0198
:1005F00091E0A91AB108A4EFAA16A1E0BA0609F081
:1006000042CF83E28093480180B7886080BF83E255
:1006100091E00E94D4008CE3C82E81E0D82E00E146
:10062000CE0101967C0110914801812F90E00E943B
:100630007B014D9B09C01F3F09F01F5F10934801CC
:10064000812F90E00E947B01809148014F9B09C05F
:10065000843208F484E281508093480190E00E9443
:100660007B01809148011F928F93DF92CF921F925E
:100670000F93FF92EF920E94F408C7010E94D400EA
:100680000FB6F894DEBF0FBECDBFCDCFF4013197CA
:10069000F1F701979CCFE98AFA8A0B8B1C8B698949
:1006A0007A898B899C890E940A0ACB010197F1F70C
:1006B00091CF81E090E0FACF20E030E04FE753E4C3
:1006C000698A7A8ACB8ADC8A69897A898B899C894A
:1006D0000E94EB0A18168CF4298A3A8A4B8A5C8AA3
:1006E00069897A898B899C890E940A0A698B7A8B2D
:1006F0008B8B9C8B89899A89D9CF698A7A8ACB8A94
:10070000DC8A69897A898B899C890E940A0A6A95A0
:10071000F1F760CF61E0FBCFA1E1B0E0E2E9F3E007
:100720000C9435077C013B015A01DC0117961C92A1
:100730001E92169713968C9181FF94C3F7019381B3
:10074000F30193FD859193FF81913F01882309F483
:1007500068C0853239F493FD859193FF81913F0103
:10076000853239F4B70190E00E94660865015601B0
:10077000E5CF812C512C00E00032D0F58B3289F18D
:1007800058F4803279F1833289F19BE9980F9330E4
:1007900008F026C20F7E5AC08D3231F1803349F005
:1007A00020ED280F2A3090F18E3209F041C000640C
:1007B00001C00160F30193FD859193FF81913F0199
:1007C0008111DACF102F197F803709F40FC308F099
:1007D00005C3883509F40CC38F3619F528E030E0DD
:1007E000E0C202600460E6CF0860E4CF0061E2CFBF
:1007F00007FD25C020ED280F2A3078F406FF06C03B
:10080000FAE08F9E200D1124822ED4CF3AE0539E21
:10081000200D1124522E0062CDCF8E3249F406FFF6
:10082000C6CFF701868197816196E2E10C9451076A
:100830008C3611F40068BECF883609F4BBCF9BEB31
:10084000980F933008F0A1CF0061805E402F407474
:10085000442E0F73902E4111A8C0853609F0AFC009
:10086000689496F866E0862E16E0F50181919191E4
:10087000A191B1916F018C879D87AE87BF87042DB1
:10088000282DAE014F5F5F4FBC01CD010E9478075C
:100890005C013980832D8C7030FE02C033FED1C0E4
:1008A000082F91FCCAC092FEAAC08111E1C000E2EB
:1008B00097FEF9C04A0C34FE04C08A81813309F4E2
:1008C0004A9414140CF01CC1F8E0F41510F498E0EC
:1008D000492EC501B7FE02C080E090E001960111EB
:1008E0000196112331F0212F30E02F5F3F4F820F0F
:1008F000931F252D30E0581A821793070CF0512CC6
:10090000892D8970811102C05110FDC0002329F08A
:10091000B701802F90E00E94660893FC02C051103E
:10092000F9C097FE0FC14501B7FE02C0812C912C82
:10093000C5018819990961E070E06C0F7D1F680F8F
:10094000791F7D876C87C50184199109998B888BE4
:10095000012F10E0119501951109A814B9040CF4A8
:10096000E0C0A889B989A815B9050CF0DAC0EC85F2
:10097000FD858181F1E08F1A91082C853D852F5FDF
:100980003F4F3D872C87801691060CF4CCC0B701F1
:1009900090E00E9466083FEF83169306F1F6B701D8
:1009A0008EE290E00E946608D8CF853679F468948C
:1009B00096F867E06815F8F0182D412C56CF35E011
:1009C000832E8636C9F756E0852E02C0863671F42E
:1009D000689497F8882D5BE3581508F48BE344245A
:1009E0004394480E182D47E0842E3FCF10E0882016
:1009F00021F38A94DECF27E0822E17E0DECF882312
:100A000009F456CFF3E0F51510F1512C0CE610E087
:100A100033FE02C008E610E0592D5071952EF80102
:100A20008491811137C0552009F4A1CEB70180E22D
:100A300090E00E9466085A94F6CF811127C00BE21D
:100A400037CF0DE2882309F433CF1DE212C02DEF1A
:100A5000520E192D18701111D9CFB70180E290E014
:100A60000E9466085A945110F8CF112371F208C001
:100A700010E234E0351560F44CEF540E93FEEDCFE8
:100A8000B701812F90E00E946608C0CF1BE2F1CF32
:100A9000512CF6CF91108052B70190E00E94660869
:100AA0000F5F1F4FBCCF96FE03C085E090E017CFCD
:100AB000E12FF0E0EA15FB053CF02CEFA2162FEF3A
:100AC000B20614F0689497F8329641E050E04C0F6B
:100AD0005D1FE40FF51F01C01150112319F0829121
:100AE0008033D1F397FEE1CF44244394410E812F0C
:100AF00090E01A19A816B9060CF4EBCE10E0E9CE76
:100B000044244394E6CEB70180E290E00E94660858
:100B10005A94FACEB70180E390E00E9466085A9496
:100B2000FECE80E327CFA814B90439F49A81963316
:100B300018F4953311F434FE81E3B70190E00E947C
:100B4000660871CF8A81813311F0E89434F8B701D7
:100B500090E00E946608111125C085E490E094FCA5
:100B600002C085E690E0B7010E946608B7FC05C0A8
:100B7000A114B10471F534FE2CC0B194A194B10854
:100B80008DE2B70190E00E94660880E35AE0A51666
:100B9000B1040CF5B70190E00E946608B701C501E9
:100BA000C096CDCFB7018EE290E00E9466081E5F2E
:100BB00002E0802F0F5FE1E0F0E0EC0FFD1FE80F97
:100BC000F11D8081B70190E00E9466080113F1CF0A
:100BD000C4CF8BE2D6CF8F5F4AE0A41AB108D6CF3C
:100BE0008336B1F0833709F43CC0833509F04FC038
:100BF000F501219031906F01682D70E006FD02C073
:100C00006FEF7FEFC1010E9450085C0100680EC0C9
:100C1000650162E0C60ED11CD5018C918983AA249E
:100C2000A394B12CFE0131961F010F7703FD05C07F
:100C3000852D90E0A816B90618F1A114B10409F4A5
:100C4000F2CEF10107FD859107FF81911F01B701E8
:100C500090E00E94660851105A94F1E0AF1AB10872
:100C6000ECCFD5012D903D906D01682D70E006FD13
:100C700002C06FEF7FEFC1010E945B085C01D5CF1E
:100C8000B70180E290E00E9466085A94D1CF843682
:100C900019F0893609F07EC007FF73C0D5016D9148
:100CA0007D918D919D916D010F76402E97FF09C02A
:100CB00090958095709561957F4F8F4F9F4F689469
:100CC00047F82AE030E08E010F5F1F4FA8010E9415
:100CD0009608B82EB01A1B2D042D46FE0AC00E7FB2
:100CE000B81438F444FE04C042FC02C0042D0E7E49
:100CF000182D04FF90C0FE01EB0DF11D80818033A3
:100D000009F083C0097E03FD0EC000FF93C08B2C49
:100D1000151518F4850C811A152D852D811B51167A
:100D200008F480E0180F151508F086C0511A04FF6A
:100D300085C0B70180E390E00E94660802FF09C009
:100D400088E590E001FD02C088E790E0B7010E94CD
:100D50006608B81408F47FC0BA940B2D10E00F5F3A
:100D60001F4FCE0101965C01080F191FD8018E910B
:100D70008D01B70190E00E946608A016B106B1F798
:100D800052CEF501619171916F01072E000C880B15
:100D9000990B8ACF102F1F7E2AE030E0853709F0AB
:100DA00011CD17FF2AC0D5014D915D916D917D91B7
:100DB0006D014C875D876E877F87BE016F5F7F4FB8
:100DC0005B01AB016C857D858E859F850E949608B1
:100DD000B82EBA18412EE89447F87DCF883709F02D
:100DE00020CD14FD146020E130E0DBCF1061F9CF9D
:100DF00004FD166020E132E0D4CFF501819191919C
:100E00006F01AC0160E070E0D4CF02FD02C01F5F53
:100E10007ACF1E5F78CF802F8678882309F473CF2E
:100E2000F6CFB70180E290E00E946608A394A51473
:100E3000C0F373CFA12EFBCF512C79CF802F8678B2
:100E4000882309F486CF8BE201FF80E207FD8DE263
:100E5000B70190E07CCFB70180E390E00E94660884
:100E60008A9477CF8FEF9FEFDFCC2F923F924F92F4
:100E70005F926F927F928F929F92AF92BF92CF922A
:100E8000DF92EF92FF920F931F93CF93DF93CDB733
:100E9000DEB7CA1BDB0B0FB6F894DEBF0FBECDBFAB
:100EA00009942A88398848885F846E847D848C847C
:100EB0009B84AA84B984C884DF80EE80FD800C8185
:100EC0001B81AA81B981CE0FD11D0FB6F894DEBF68
:100ED0000FBECDBFED010895991B79E004C0991FA5
:100EE000961708F0961B881F7A95C9F78095089584
:100EF000283008F027E03327DA01990F311D87FDEC
:100F0000916000966105710539F432602E5F3D9362
:100F100030E32A95E1F708959F3F30F0803871055E
:100F2000610509F03C5F3C5F3D93913008F08068BB
:100F3000911DDF93CF931F930F93FF92EF92192F81
:100F4000987F9695E92F96959695E90FFF27E6539A
:100F5000FF4F99273327EE24FF24A701E7010590CF
:100F60000894079428F4360FE71EF81E491F511DF8
:100F7000660F771F881F991F0694A1F705900794A5
:100F800028F4E70EF81E491F561FC11D770F881F52
:100F9000991F661F0694A1F70590079428F4F80E90
:100FA000491F561FC71FD11D880F991F661F771F26
:100FB0000694A1F70590079420F4490F561FC71F08
:100FC000D81F990F661F771F881F0694A9F7849171
:100FD0001095177041F0D695C79557954795F7949A
:100FE000E7941A95C1F7E0E7F0E068941590159141
:100FF00035916591959105907FE27395E118F10A1D
:10100000430B560BC90BD009C0F7E10CF11E431F6F
:10101000561FC91FD01D7EF4703311F48A95E6CF98
:10102000E894015030F0080F0AF40027021708F482
:10103000202F2395022F7A3328F079E37D932A9588
:10104000E9F710C07D932A9589F6069497956795E0
:10105000379517951794E118F10A430B560BC90BF6
:10106000D00998F023957E9173957A3308F070E358
:101070007C932013B8F77E9170617D9330F0839557
:1010800071E37D9370E32A95E1F71124EF90FF90CF
:101090000F911F91CF91DF91992787FD909508952A
:1010A000FC010590615070400110D8F78095909533
:1010B0008E0F9F1F0895FC01615070400190011038
:1010C000D8F7809590958E0F9F1F08950F931F93CB
:1010D000CF93DF93182F092FEB018B8181FD09C07E
:1010E0001FEF0FEF812F902FDF91CF911F910F9165
:1010F000089582FF14C02E813F818C819D81281725
:1011000039073CF4E881F981CF01019699838883FE
:1011100010838E819F8101969F838E83E3CFE88524
:10112000F985812F0995892BA1F3DACFFA01AA2736
:10113000283051F1203181F1E8946F936E7F6E5F1A
:101140007F4F8F4F9F4FAF4FB1E03ED0B4E03CD0C8
:10115000670F781F891F9A1FA11D680F791F8A1FAB
:10116000911DA11D6A0F711D811D911DA11D20D012
:1011700009F468943F912AE0269F11243019305DCC
:101180003193DEF6CF010895462F4770405D4193BD
:10119000B3E00FD0C9F7F6CF462F4F70405D4A330A
:1011A00018F0495D31FD4052419302D0A9F7EACFD2
:1011B000B4E0A6959795879577956795BA95C9F701
:1011C00000976105710508959B01AC010A2E0694F4
:1011D0005795479537952795BA95C9F7620F731FAD
:1011E000841F951FA01D0895AEE0B0E0EAEFF8E07F
:1011F0000C9443070D891E8986E08C831A8309832A
:101200008F89988D813020E8920710F080E090E877
:1012100001979E838D83AE01455E5F4F698D7A8D08
:10122000CE0101960E948C034D815E8157FD0AC05C
:101230002F813885421753070CF49A01020F131FB0
:10124000F80110822E96E4E00C945F075058BB27FB
:10125000AA270E943E090C94B10A0E94A30A38F002
:101260000E94AA0A20F039F49F3F19F426F40C9446
:10127000A00A0EF4E095E7FB0C949A0AE92F0E946D
:10128000C20A58F3BA17620773078407950720F05C
:1012900079F4A6F50C94E40A0EF4E0950B2EBA2F1F
:1012A000A02D0B01B90190010C01CA01A00111246C
:1012B000FF27591B99F0593F50F4503E68F11A1618
:1012C000F040A22F232F342F4427585FF3CF4695A9
:1012D00037952795A795F0405395C9F77EF41F16CB
:1012E000BA0B620B730B840BBAF09150A1F0FF0F95
:1012F000BB1F661F771F881FC2F70EC0BA0F621F81
:10130000731F841F48F4879577956795B795F79570
:101310009E3F08F0B0CF9395880F08F09927EE0F05
:101320009795879508950E94760A08F481E00895BC
:101330000E94AC090C94B10A0E94AA0A58F00E94BB
:10134000A30A40F029F45F3F29F00C949A0A511146
:101350000C94E50A0C94A00A0E94C20A68F399232F
:10136000B1F3552391F3951B550BBB27AA276217A1
:101370007307840738F09F5F5F4F220F331F441FAE
:10138000AA1FA9F335D00E2E3AF0E0E832D09150E2
:101390005040E695001CCAF72BD0FE2F29D0660FCF
:1013A000771F881FBB1F261737074807AB07B0E812
:1013B00009F0BB0B802DBF01FF2793585F4F3AF018
:1013C0009E3F510578F00C949A0A0C94E50A5F3F11
:1013D000E4F3983ED4F3869577956795B795F7959E
:1013E0009F5FC9F7880F911D9695879597F9089586
:1013F000E1E0660F771F881FBB1F62177307840722
:10140000BA0720F0621B730B840BBA0BEE1F88F730
:10141000E09508950E94CA0A88F09F5798F0B92F66
:101420009927B751B0F0E1F0660F771F881F991F19
:101430001AF0BA95C9F714C0B13091F00E94E40ACD
:10144000B1E008950C94E40A672F782F8827B85FDD
:1014500039F0B93FCCF3869577956795B395D9F771
:101460003EF490958095709561957F4F8F4F9F4F7B
:101470000895E89409C097FB3EF490958095709587
:1014800061957F4F8F4F9F4F9923A9F0F92F96E9D0
:10149000BB279395F695879577956795B795F11145
:1014A000F8CFFAF4BB0F11F460FF1BC06F5F7F4FE2
:1014B0008F4F9F4F16C0882311F096E911C07723F4
:1014C00021F09EE8872F762F05C0662371F096E8FD
:1014D000862F70E060E02AF09A95660F771F881FCC
:1014E000DAF7880F9695879597F90895990F000870
:1014F000550FAA0BE0E8FEEF16161706E807F907E6
:10150000C0F012161306E407F50798F0621B730B80
:10151000840B950B39F40A2661F0232B242B252B01
:1015200021F408950A2609F4A140A6958FEF811DA4
:10153000811D089597F99F6780E870E060E0089545
:101540009FEF80EC089500240A94161617061806DB
:101550000906089500240A941216130614060506B7
:101560000895092E0394000C11F4882352F0BB0F48
:1015700040F4BF2B11F460FF04C06F5F7F4F8F4FAB
:101580009F4F089557FD9058440F551F59F05F3FE6
:1015900071F04795880F97FB991F61F09F3F79F095
:1015A00087950895121613061406551FF2CF469517
:1015B000F1DF08C0161617061806991FF1CF869599
:1015C0007105610508940895E894BB27662777277D
:1015D000CB0197F908950E94760A08F48FEF0895D9
:1015E0000E94030B0C94B10A0E94A30A38F00E94D7
:1015F000AA0A20F0952311F00C949A0A0C94A00AE0
:1016000011240C94E50A0E94C20A70F3959FC1F35D
:10161000950F50E0551F629FF001729FBB27F00DA0
:10162000B11D639FAA27F00DB11DAA1F649F6627F5
:10163000B00DA11D661F829F2227B00DA11D621F44
:10164000739FB00DA11D621F839FA00D611D221FFE
:10165000749F3327A00D611D231F849F600D211DE2
:10166000822F762F6A2F11249F5750409AF0F1F065
:1016700088234AF0EE0FFF1FBB1F661F771F881FCE
:1016800091505040A9F79E3F510580F00C949A0A62
:101690000C94E50A5F3FE4F3983ED4F38695779582
:1016A0006795B795F795E7959F5FC1F7FE2B880F74
:0E16B000911D9695879597F90895F894FFCFB0
:1016BE00424C444320455343204F70656E206C6F5F
:1016CE006F702073746172742075702074657374FA
:1016DE000A0D00424C44432045534320537461721B
:1016EE007420757020746573740A0D0053706565EF
:0816FE00642025640A0D0000C0
:00000001FF
